{
  "_format": "hh-sol-artifact-1",
  "contractName": "Domains",
  "sourceName": "contracts/Domains.sol",
  "abi": [
    {
      "inputs": [
        {
          "internalType": "string",
          "name": "_tld",
          "type": "string"
        }
      ],
      "stateMutability": "payable",
      "type": "constructor"
    },
    {
      "inputs": [],
      "name": "AlreadyRegistered",
      "type": "error"
    },
    {
      "inputs": [
        {
          "internalType": "string",
          "name": "name",
          "type": "string"
        }
      ],
      "name": "InvalidName",
      "type": "error"
    },
    {
      "inputs": [],
      "name": "Unauthorized",
      "type": "error"
    },
    {
      "anonymous": false,
      "inputs": [
        {
          "indexed": true,
          "internalType": "address",
          "name": "owner",
          "type": "address"
        },
        {
          "indexed": true,
          "internalType": "address",
          "name": "approved",
          "type": "address"
        },
        {
          "indexed": true,
          "internalType": "uint256",
          "name": "tokenId",
          "type": "uint256"
        }
      ],
      "name": "Approval",
      "type": "event"
    },
    {
      "anonymous": false,
      "inputs": [
        {
          "indexed": true,
          "internalType": "address",
          "name": "owner",
          "type": "address"
        },
        {
          "indexed": true,
          "internalType": "address",
          "name": "operator",
          "type": "address"
        },
        {
          "indexed": false,
          "internalType": "bool",
          "name": "approved",
          "type": "bool"
        }
      ],
      "name": "ApprovalForAll",
      "type": "event"
    },
    {
      "anonymous": false,
      "inputs": [
        {
          "indexed": true,
          "internalType": "address",
          "name": "from",
          "type": "address"
        },
        {
          "indexed": true,
          "internalType": "address",
          "name": "to",
          "type": "address"
        },
        {
          "indexed": true,
          "internalType": "uint256",
          "name": "tokenId",
          "type": "uint256"
        }
      ],
      "name": "Transfer",
      "type": "event"
    },
    {
      "inputs": [
        {
          "internalType": "address",
          "name": "to",
          "type": "address"
        },
        {
          "internalType": "uint256",
          "name": "tokenId",
          "type": "uint256"
        }
      ],
      "name": "approve",
      "outputs": [],
      "stateMutability": "nonpayable",
      "type": "function"
    },
    {
      "inputs": [
        {
          "internalType": "address",
          "name": "owner",
          "type": "address"
        }
      ],
      "name": "balanceOf",
      "outputs": [
        {
          "internalType": "uint256",
          "name": "",
          "type": "uint256"
        }
      ],
      "stateMutability": "view",
      "type": "function"
    },
    {
      "inputs": [
        {
          "internalType": "string",
          "name": "",
          "type": "string"
        }
      ],
      "name": "domains",
      "outputs": [
        {
          "internalType": "address",
          "name": "",
          "type": "address"
        }
      ],
      "stateMutability": "view",
      "type": "function"
    },
    {
      "inputs": [
        {
          "internalType": "string",
          "name": "name",
          "type": "string"
        }
      ],
      "name": "getAddress",
      "outputs": [
        {
          "internalType": "address",
          "name": "",
          "type": "address"
        }
      ],
      "stateMutability": "view",
      "type": "function"
    },
    {
      "inputs": [],
      "name": "getAllNames",
      "outputs": [
        {
          "internalType": "string[]",
          "name": "",
          "type": "string[]"
        }
      ],
      "stateMutability": "view",
      "type": "function"
    },
    {
      "inputs": [
        {
          "internalType": "uint256",
          "name": "tokenId",
          "type": "uint256"
        }
      ],
      "name": "getApproved",
      "outputs": [
        {
          "internalType": "address",
          "name": "",
          "type": "address"
        }
      ],
      "stateMutability": "view",
      "type": "function"
    },
    {
      "inputs": [
        {
          "internalType": "string",
          "name": "name",
          "type": "string"
        }
      ],
      "name": "getRecord",
      "outputs": [
        {
          "internalType": "string",
          "name": "",
          "type": "string"
        }
      ],
      "stateMutability": "view",
      "type": "function"
    },
    {
      "inputs": [
        {
          "internalType": "address",
          "name": "owner",
          "type": "address"
        },
        {
          "internalType": "address",
          "name": "operator",
          "type": "address"
        }
      ],
      "name": "isApprovedForAll",
      "outputs": [
        {
          "internalType": "bool",
          "name": "",
          "type": "bool"
        }
      ],
      "stateMutability": "view",
      "type": "function"
    },
    {
      "inputs": [],
      "name": "isOwner",
      "outputs": [
        {
          "internalType": "bool",
          "name": "",
          "type": "bool"
        }
      ],
      "stateMutability": "view",
      "type": "function"
    },
    {
      "inputs": [],
      "name": "name",
      "outputs": [
        {
          "internalType": "string",
          "name": "",
          "type": "string"
        }
      ],
      "stateMutability": "view",
      "type": "function"
    },
    {
      "inputs": [
        {
          "internalType": "uint256",
          "name": "",
          "type": "uint256"
        }
      ],
      "name": "names",
      "outputs": [
        {
          "internalType": "string",
          "name": "",
          "type": "string"
        }
      ],
      "stateMutability": "view",
      "type": "function"
    },
    {
      "inputs": [],
      "name": "owner",
      "outputs": [
        {
          "internalType": "address payable",
          "name": "",
          "type": "address"
        }
      ],
      "stateMutability": "view",
      "type": "function"
    },
    {
      "inputs": [
        {
          "internalType": "uint256",
          "name": "tokenId",
          "type": "uint256"
        }
      ],
      "name": "ownerOf",
      "outputs": [
        {
          "internalType": "address",
          "name": "",
          "type": "address"
        }
      ],
      "stateMutability": "view",
      "type": "function"
    },
    {
      "inputs": [
        {
          "internalType": "string",
          "name": "name",
          "type": "string"
        }
      ],
      "name": "price",
      "outputs": [
        {
          "internalType": "uint256",
          "name": "",
          "type": "uint256"
        }
      ],
      "stateMutability": "pure",
      "type": "function"
    },
    {
      "inputs": [
        {
          "internalType": "string",
          "name": "",
          "type": "string"
        }
      ],
      "name": "records",
      "outputs": [
        {
          "internalType": "string",
          "name": "",
          "type": "string"
        }
      ],
      "stateMutability": "view",
      "type": "function"
    },
    {
      "inputs": [
        {
          "internalType": "string",
          "name": "name",
          "type": "string"
        }
      ],
      "name": "registers",
      "outputs": [],
      "stateMutability": "payable",
      "type": "function"
    },
    {
      "inputs": [
        {
          "internalType": "address",
          "name": "from",
          "type": "address"
        },
        {
          "internalType": "address",
          "name": "to",
          "type": "address"
        },
        {
          "internalType": "uint256",
          "name": "tokenId",
          "type": "uint256"
        }
      ],
      "name": "safeTransferFrom",
      "outputs": [],
      "stateMutability": "nonpayable",
      "type": "function"
    },
    {
      "inputs": [
        {
          "internalType": "address",
          "name": "from",
          "type": "address"
        },
        {
          "internalType": "address",
          "name": "to",
          "type": "address"
        },
        {
          "internalType": "uint256",
          "name": "tokenId",
          "type": "uint256"
        },
        {
          "internalType": "bytes",
          "name": "_data",
          "type": "bytes"
        }
      ],
      "name": "safeTransferFrom",
      "outputs": [],
      "stateMutability": "nonpayable",
      "type": "function"
    },
    {
      "inputs": [
        {
          "internalType": "address",
          "name": "operator",
          "type": "address"
        },
        {
          "internalType": "bool",
          "name": "approved",
          "type": "bool"
        }
      ],
      "name": "setApprovalForAll",
      "outputs": [],
      "stateMutability": "nonpayable",
      "type": "function"
    },
    {
      "inputs": [
        {
          "internalType": "string",
          "name": "name",
          "type": "string"
        },
        {
          "internalType": "string",
          "name": "record",
          "type": "string"
        }
      ],
      "name": "setRecord",
      "outputs": [],
      "stateMutability": "nonpayable",
      "type": "function"
    },
    {
      "inputs": [
        {
          "internalType": "bytes4",
          "name": "interfaceId",
          "type": "bytes4"
        }
      ],
      "name": "supportsInterface",
      "outputs": [
        {
          "internalType": "bool",
          "name": "",
          "type": "bool"
        }
      ],
      "stateMutability": "view",
      "type": "function"
    },
    {
      "inputs": [],
      "name": "symbol",
      "outputs": [
        {
          "internalType": "string",
          "name": "",
          "type": "string"
        }
      ],
      "stateMutability": "view",
      "type": "function"
    },
    {
      "inputs": [],
      "name": "tld",
      "outputs": [
        {
          "internalType": "string",
          "name": "",
          "type": "string"
        }
      ],
      "stateMutability": "view",
      "type": "function"
    },
    {
      "inputs": [
        {
          "internalType": "uint256",
          "name": "tokenId",
          "type": "uint256"
        }
      ],
      "name": "tokenURI",
      "outputs": [
        {
          "internalType": "string",
          "name": "",
          "type": "string"
        }
      ],
      "stateMutability": "view",
      "type": "function"
    },
    {
      "inputs": [
        {
          "internalType": "address",
          "name": "from",
          "type": "address"
        },
        {
          "internalType": "address",
          "name": "to",
          "type": "address"
        },
        {
          "internalType": "uint256",
          "name": "tokenId",
          "type": "uint256"
        }
      ],
      "name": "transferFrom",
      "outputs": [],
      "stateMutability": "nonpayable",
      "type": "function"
    },
    {
      "inputs": [
        {
          "internalType": "string",
          "name": "name",
          "type": "string"
        }
      ],
      "name": "valid",
      "outputs": [
        {
          "internalType": "bool",
          "name": "",
          "type": "bool"
        }
      ],
      "stateMutability": "pure",
      "type": "function"
    },
    {
      "inputs": [],
      "name": "withdraw",
      "outputs": [],
      "stateMutability": "nonpayable",
      "type": "function"
    }
  ],
  "bytecode": "0x6080604052604051806108a0016040528061086b8152602001620053ef61086b9139600d908051906020019062000038929190620002c8565b506040518060400160405280600d81526020017f3c2f746578743e3c2f7376673e00000000000000000000000000000000000000815250600e908051906020019062000086929190620002c8565b5060405162005c5a38038062005c5a8339818101604052810190620000ac919062000515565b6040518060400160405280601281526020017f4d61746963204e616d65205365727669636500000000000000000000000000008152506040518060400160405280600381526020017f4d4e530000000000000000000000000000000000000000000000000000000000815250816000908051906020019062000130929190620002c8565b50806001908051906020019062000149929190620002c8565b50505033600c60006101000a81548173ffffffffffffffffffffffffffffffffffffffff021916908373ffffffffffffffffffffffffffffffffffffffff1602179055508060089080519060200190620001a5929190620002c8565b50620001f26040518060400160405280601981526020017f2573206e616d65207365727669636573206465706c6f7965640000000000000081525082620001f960201b62001c5e1760201c565b5062000663565b6200029b828260405160240162000212929190620005c3565b6040516020818303038152906040527f4b5c4277000000000000000000000000000000000000000000000000000000007bffffffffffffffffffffffffffffffffffffffffffffffffffffffff19166020820180517bffffffffffffffffffffffffffffffffffffffffffffffffffffffff83818316178352505050506200029f60201b60201c565b5050565b60008151905060006a636f6e736f6c652e6c6f679050602083016000808483855afa5050505050565b828054620002d6906200062d565b90600052602060002090601f016020900481019282620002fa576000855562000346565b82601f106200031557805160ff191683800117855562000346565b8280016001018555821562000346579182015b828111156200034557825182559160200191906001019062000328565b5b50905062000355919062000359565b5090565b5b80821115620003745760008160009055506001016200035a565b5090565b6000604051905090565b600080fd5b600080fd5b600080fd5b600080fd5b6000601f19601f8301169050919050565b7f4e487b7100000000000000000000000000000000000000000000000000000000600052604160045260246000fd5b620003e18262000396565b810181811067ffffffffffffffff82111715620004035762000402620003a7565b5b80604052505050565b60006200041862000378565b9050620004268282620003d6565b919050565b600067ffffffffffffffff821115620004495762000448620003a7565b5b620004548262000396565b9050602081019050919050565b60005b838110156200048157808201518184015260208101905062000464565b8381111562000491576000848401525b50505050565b6000620004ae620004a8846200042b565b6200040c565b905082815260208101848484011115620004cd57620004cc62000391565b5b620004da84828562000461565b509392505050565b600082601f830112620004fa57620004f96200038c565b5b81516200050c84826020860162000497565b91505092915050565b6000602082840312156200052e576200052d62000382565b5b600082015167ffffffffffffffff8111156200054f576200054e62000387565b5b6200055d84828501620004e2565b91505092915050565b600081519050919050565b600082825260208201905092915050565b60006200058f8262000566565b6200059b818562000571565b9350620005ad81856020860162000461565b620005b88162000396565b840191505092915050565b60006040820190508181036000830152620005df818562000582565b90508181036020830152620005f5818462000582565b90509392505050565b7f4e487b7100000000000000000000000000000000000000000000000000000000600052602260045260246000fd5b600060028204905060018216806200064657607f821691505b602082108114156200065d576200065c620005fe565b5b50919050565b614d7c80620006736000396000f3fe60806040526004361061019c5760003560e01c80636352211e116100ec578063b88d4fde1161008a578063c87b56dd11610064578063c87b56dd14610603578063e985e9c514610640578063fb825e5f1461067d578063fe2c6198146106a85761019c565b8063b88d4fde14610574578063bf40fac11461059d578063c1880a98146105da5761019c565b80638f32d59b116100c65780638f32d59b146104b857806395d89b41146104e35780639791c0971461050e578063a22cb4651461054b5761019c565b80636352211e1461041357806370a08231146104505780638da5cb5b1461048d5761019c565b8063264492351161015957806342842e0e1161013357806342842e0e1461035457806343b9de381461037d5780634622ab0314610399578063541e771d146103d65761019c565b806326449235146102d55780632d551432146103125780633ccfd60b1461033d5761019c565b806301ffc9a7146101a157806306fdde03146101de578063081812fc14610209578063095ea7b31461024657806311dd88451461026f57806323b872dd146102ac575b600080fd5b3480156101ad57600080fd5b506101c860048036038101906101c3919061313d565b6106e5565b6040516101d59190613185565b60405180910390f35b3480156101ea57600080fd5b506101f36107c7565b6040516102009190613239565b60405180910390f35b34801561021557600080fd5b50610230600480360381019061022b9190613291565b610859565b60405161023d91906132ff565b60405180910390f35b34801561025257600080fd5b5061026d60048036038101906102689190613346565b6108de565b005b34801561027b57600080fd5b50610296600480360381019061029191906133eb565b6109f6565b6040516102a39190613239565b60405180910390f35b3480156102b857600080fd5b506102d360048036038101906102ce9190613438565b610aa9565b005b3480156102e157600080fd5b506102fc60048036038101906102f791906135bb565b610b09565b60405161030991906132ff565b60405180910390f35b34801561031e57600080fd5b50610327610b52565b6040516103349190613239565b60405180910390f35b34801561034957600080fd5b50610352610be0565b005b34801561036057600080fd5b5061037b60048036038101906103769190613438565b610ca6565b005b610397600480360381019061039291906133eb565b610cc6565b005b3480156103a557600080fd5b506103c060048036038101906103bb9190613291565b611137565b6040516103cd9190613239565b60405180910390f35b3480156103e257600080fd5b506103fd60048036038101906103f891906135bb565b6111d7565b60405161040a9190613239565b60405180910390f35b34801561041f57600080fd5b5061043a60048036038101906104359190613291565b61128d565b60405161044791906132ff565b60405180910390f35b34801561045c57600080fd5b5061047760048036038101906104729190613604565b61133f565b6040516104849190613640565b60405180910390f35b34801561049957600080fd5b506104a26113f7565b6040516104af919061367c565b60405180910390f35b3480156104c457600080fd5b506104cd61141d565b6040516104da9190613185565b60405180910390f35b3480156104ef57600080fd5b506104f8611475565b6040516105059190613239565b60405180910390f35b34801561051a57600080fd5b50610535600480360381019061053091906133eb565b611507565b6040516105429190613185565b60405180910390f35b34801561055757600080fd5b50610572600480360381019061056d91906136c3565b6115bb565b005b34801561058057600080fd5b5061059b600480360381019061059691906137a4565b6115d1565b005b3480156105a957600080fd5b506105c460048036038101906105bf91906133eb565b611633565b6040516105d191906132ff565b60405180910390f35b3480156105e657600080fd5b5061060160048036038101906105fc9190613827565b61167e565b005b34801561060f57600080fd5b5061062a60048036038101906106259190613291565b611759565b6040516106379190613239565b60405180910390f35b34801561064c57600080fd5b50610667600480360381019061066291906138a8565b6118ab565b6040516106749190613185565b60405180910390f35b34801561068957600080fd5b5061069261193f565b60405161069f91906139f4565b60405180910390f35b3480156106b457600080fd5b506106cf60048036038101906106ca91906133eb565b611bb8565b6040516106dc9190613640565b60405180910390f35b60007f80ac58cd000000000000000000000000000000000000000000000000000000007bffffffffffffffffffffffffffffffffffffffffffffffffffffffff1916827bffffffffffffffffffffffffffffffffffffffffffffffffffffffff191614806107b057507f5b5e139f000000000000000000000000000000000000000000000000000000007bffffffffffffffffffffffffffffffffffffffffffffffffffffffff1916827bffffffffffffffffffffffffffffffffffffffffffffffffffffffff1916145b806107c057506107bf82611cfa565b5b9050919050565b6060600080546107d690613a45565b80601f016020809104026020016040519081016040528092919081815260200182805461080290613a45565b801561084f5780601f106108245761010080835404028352916020019161084f565b820191906000526020600020905b81548152906001019060200180831161083257829003601f168201915b5050505050905090565b600061086482611d64565b6108a3576040517f08c379a000000000000000000000000000000000000000000000000000000000815260040161089a90613ae9565b60405180910390fd5b6004600083815260200190815260200160002060009054906101000a900473ffffffffffffffffffffffffffffffffffffffff169050919050565b60006108e98261128d565b90508073ffffffffffffffffffffffffffffffffffffffff168373ffffffffffffffffffffffffffffffffffffffff16141561095a576040517f08c379a000000000000000000000000000000000000000000000000000000000815260040161095190613b7b565b60405180910390fd5b8073ffffffffffffffffffffffffffffffffffffffff16610979611dd0565b73ffffffffffffffffffffffffffffffffffffffff1614806109a857506109a7816109a2611dd0565b6118ab565b5b6109e7576040517f08c379a00000000000000000000000000000000000000000000000000000000081526004016109de90613c0d565b60405180910390fd5b6109f18383611dd8565b505050565b6060600a8383604051610a0a929190613c5d565b90815260200160405180910390208054610a2390613a45565b80601f0160208091040260200160405190810160405280929190818152602001828054610a4f90613a45565b8015610a9c5780601f10610a7157610100808354040283529160200191610a9c565b820191906000526020600020905b815481529060010190602001808311610a7f57829003601f168201915b5050505050905092915050565b610aba610ab4611dd0565b82611e91565b610af9576040517f08c379a0000000000000000000000000000000000000000000000000000000008152600401610af090613ce8565b60405180910390fd5b610b04838383611f6f565b505050565b6009818051602081018201805184825260208301602085012081835280955050505050506000915054906101000a900473ffffffffffffffffffffffffffffffffffffffff1681565b60088054610b5f90613a45565b80601f0160208091040260200160405190810160405280929190818152602001828054610b8b90613a45565b8015610bd85780601f10610bad57610100808354040283529160200191610bd8565b820191906000526020600020905b815481529060010190602001808311610bbb57829003601f168201915b505050505081565b610be861141d565b610bf157600080fd5b600047905060003373ffffffffffffffffffffffffffffffffffffffff1682604051610c1c90613d39565b60006040518083038185875af1925050503d8060008114610c59576040519150601f19603f3d011682016040523d82523d6000602084013e610c5e565b606091505b5050905080610ca2576040517f08c379a0000000000000000000000000000000000000000000000000000000008152600401610c9990613d9a565b60405180910390fd5b5050565b610cc1838383604051806020016040528060008152506115d1565b505050565b600073ffffffffffffffffffffffffffffffffffffffff1660098383604051610cf0929190613c5d565b908152602001604051809103902060009054906101000a900473ffffffffffffffffffffffffffffffffffffffff1673ffffffffffffffffffffffffffffffffffffffff1614610d6c576040517f3a81d6fc00000000000000000000000000000000000000000000000000000000815260040160405180910390fd5b610d768282611507565b610db95781816040517f7f19f48d000000000000000000000000000000000000000000000000000000008152600401610db0929190613de7565b60405180910390fd5b6000610dc58383611bb8565b905080341015610e0a576040517f08c379a0000000000000000000000000000000000000000000000000000000008152600401610e0190613e57565b60405180910390fd5b600083836008604051602001610e2293929190613f57565b6040516020818303038152906040529050610e726040518060400160405280600581526020017f5f6e616d6500000000000000000000000000000000000000000000000000000081525082611c5e565b6000600d82600e604051602001610e8b93929190613fb9565b60405160208183030381529060405290506000610ea860076121d6565b90506000610ef987878080601f016020809104026020016040519081016040528093929190818152602001838380828437600081840152601f19601f820116905080830192505050505050506121e4565b90506000610f0682612399565b9050610f6f6040518060600160405280602e8152602001614c67602e913989898080601f016020809104026020016040519081016040528093929190818152602001838380828437600081840152601f19601f82011690508083019250505050505050856124fa565b6000610fa586610f7e87612599565b84604051602001610f9193929190614166565b604051602081830303815290604052612599565b9050600081604051602001610fba919061420f565b6040516020818303038152906040529050610fec604051806060016040528060398152602001614c9560399139612731565b61102b6040518060400160405280600e81526020017f46696e616c20746f6b656e55524900000000000000000000000000000000000081525082611c5e565b61104c604051806060016040528060398152602001614cce60399139612731565b61105633866127ca565b61106085826127e8565b3360098b8b604051611073929190613c5d565b908152602001604051809103902060006101000a81548173ffffffffffffffffffffffffffffffffffffffff021916908373ffffffffffffffffffffffffffffffffffffffff1602179055506110fe6040518060400160405280601981526020017f25732068617320726567697374726564206120646f6d61696e000000000000008152503361285c565b8989600b60008881526020019081526020016000209190611120929190612fa8565b5061112b60076128f8565b50505050505050505050565b600b602052806000526040600020600091509050805461115690613a45565b80601f016020809104026020016040519081016040528092919081815260200182805461118290613a45565b80156111cf5780601f106111a4576101008083540402835291602001916111cf565b820191906000526020600020905b8154815290600101906020018083116111b257829003601f168201915b505050505081565b600a81805160208101820180518482526020830160208501208183528095505050505050600091509050805461120c90613a45565b80601f016020809104026020016040519081016040528092919081815260200182805461123890613a45565b80156112855780601f1061125a57610100808354040283529160200191611285565b820191906000526020600020905b81548152906001019060200180831161126857829003601f168201915b505050505081565b6000806002600084815260200190815260200160002060009054906101000a900473ffffffffffffffffffffffffffffffffffffffff169050600073ffffffffffffffffffffffffffffffffffffffff168173ffffffffffffffffffffffffffffffffffffffff161415611336576040517f08c379a000000000000000000000000000000000000000000000000000000000815260040161132d906142a3565b60405180910390fd5b80915050919050565b60008073ffffffffffffffffffffffffffffffffffffffff168273ffffffffffffffffffffffffffffffffffffffff1614156113b0576040517f08c379a00000000000000000000000000000000000000000000000000000000081526004016113a790614335565b60405180910390fd5b600360008373ffffffffffffffffffffffffffffffffffffffff1673ffffffffffffffffffffffffffffffffffffffff168152602001908152602001600020549050919050565b600c60009054906101000a900473ffffffffffffffffffffffffffffffffffffffff1681565b6000600c60009054906101000a900473ffffffffffffffffffffffffffffffffffffffff1673ffffffffffffffffffffffffffffffffffffffff163373ffffffffffffffffffffffffffffffffffffffff1614905090565b60606001805461148490613a45565b80601f01602080910402602001604051908101604052809291908181526020018280546114b090613a45565b80156114fd5780601f106114d2576101008083540402835291602001916114fd565b820191906000526020600020905b8154815290600101906020018083116114e057829003601f168201915b5050505050905090565b6000600361155884848080601f016020809104026020016040519081016040528093929190818152602001838380828437600081840152601f19601f820116905080830192505050505050506121e4565b101580156115b35750600a6115b084848080601f016020809104026020016040519081016040528093929190818152602001838380828437600081840152601f19601f820116905080830192505050505050506121e4565b11155b905092915050565b6115cd6115c6611dd0565b838361290e565b5050565b6115e26115dc611dd0565b83611e91565b611621576040517f08c379a000000000000000000000000000000000000000000000000000000000815260040161161890613ce8565b60405180910390fd5b61162d84848484612a7b565b50505050565b600060098383604051611647929190613c5d565b908152602001604051809103902060009054906101000a900473ffffffffffffffffffffffffffffffffffffffff16905092915050565b60098484604051611690929190613c5d565b908152602001604051809103902060009054906101000a900473ffffffffffffffffffffffffffffffffffffffff1673ffffffffffffffffffffffffffffffffffffffff163373ffffffffffffffffffffffffffffffffffffffff1614611723576040517f82b4290000000000000000000000000000000000000000000000000000000000815260040160405180910390fd5b8181600a8686604051611737929190613c5d565b90815260200160405180910390209190611752929190612fa8565b5050505050565b606061176482611d64565b6117a3576040517f08c379a000000000000000000000000000000000000000000000000000000000815260040161179a906143c7565b60405180910390fd5b60006006600084815260200190815260200160002080546117c390613a45565b80601f01602080910402602001604051908101604052809291908181526020018280546117ef90613a45565b801561183c5780601f106118115761010080835404028352916020019161183c565b820191906000526020600020905b81548152906001019060200180831161181f57829003601f168201915b50505050509050600061184d612ad7565b90506000815114156118635781925050506118a6565b6000825111156118985780826040516020016118809291906143e7565b604051602081830303815290604052925050506118a6565b6118a184612aee565b925050505b919050565b6000600560008473ffffffffffffffffffffffffffffffffffffffff1673ffffffffffffffffffffffffffffffffffffffff16815260200190815260200160002060008373ffffffffffffffffffffffffffffffffffffffff1673ffffffffffffffffffffffffffffffffffffffff16815260200190815260200160002060009054906101000a900460ff16905092915050565b6060600061194d60076121d6565b67ffffffffffffffff81111561196657611965613490565b5b60405190808252806020026020018201604052801561199957816020015b60608152602001906001900390816119845790505b50905060005b6119a960076121d6565b811015611bb057611a8a6040518060400160405280601681526020017f697465726174696f6e206920206e616d65735b695d2000000000000000000000815250600b60008481526020019081526020016000208054611a0790613a45565b80601f0160208091040260200160405190810160405280929190818152602001828054611a3390613a45565b8015611a805780601f10611a5557610100808354040283529160200191611a80565b820191906000526020600020905b815481529060010190602001808311611a6357829003601f168201915b5050505050611c5e565b611ae36040518060400160405280601981526020017f697465726174696f6e20692020616c6c4e616d65735b695d2000000000000000815250838381518110611ad657611ad561440b565b5b6020026020010151611c5e565b600b60008281526020019081526020016000208054611b0190613a45565b80601f0160208091040260200160405190810160405280929190818152602001828054611b2d90613a45565b8015611b7a5780601f10611b4f57610100808354040283529160200191611b7a565b820191906000526020600020905b815481529060010190602001808311611b5d57829003601f168201915b5050505050828281518110611b9257611b9161440b565b5b60200260200101819052508080611ba890614469565b91505061199f565b508091505090565b600080611c0884848080601f016020809104026020016040519081016040528093929190818152602001838380828437600081840152601f19601f820116905080830192505050505050506121e4565b905060028111611c1757600080fd5b6003811415611c31576702c68af0bb140000915050611c58565b6004811415611c4b57670214e8348c4f0000915050611c58565b67016345785d8a00009150505b92915050565b611cf68282604051602401611c749291906144b2565b6040516020818303038152906040527f4b5c4277000000000000000000000000000000000000000000000000000000007bffffffffffffffffffffffffffffffffffffffffffffffffffffffff19166020820180517bffffffffffffffffffffffffffffffffffffffffffffffffffffffff8381831617835250505050612b95565b5050565b60007f01ffc9a7000000000000000000000000000000000000000000000000000000007bffffffffffffffffffffffffffffffffffffffffffffffffffffffff1916827bffffffffffffffffffffffffffffffffffffffffffffffffffffffff1916149050919050565b60008073ffffffffffffffffffffffffffffffffffffffff166002600084815260200190815260200160002060009054906101000a900473ffffffffffffffffffffffffffffffffffffffff1673ffffffffffffffffffffffffffffffffffffffff1614159050919050565b600033905090565b816004600083815260200190815260200160002060006101000a81548173ffffffffffffffffffffffffffffffffffffffff021916908373ffffffffffffffffffffffffffffffffffffffff160217905550808273ffffffffffffffffffffffffffffffffffffffff16611e4b8361128d565b73ffffffffffffffffffffffffffffffffffffffff167f8c5be1e5ebec7d5bd14f71427d1e84f3dd0314c0f7b2291e5b200ac8c7c3b92560405160405180910390a45050565b6000611e9c82611d64565b611edb576040517f08c379a0000000000000000000000000000000000000000000000000000000008152600401611ed29061455b565b60405180910390fd5b6000611ee68361128d565b90508073ffffffffffffffffffffffffffffffffffffffff168473ffffffffffffffffffffffffffffffffffffffff161480611f5557508373ffffffffffffffffffffffffffffffffffffffff16611f3d84610859565b73ffffffffffffffffffffffffffffffffffffffff16145b80611f665750611f6581856118ab565b5b91505092915050565b8273ffffffffffffffffffffffffffffffffffffffff16611f8f8261128d565b73ffffffffffffffffffffffffffffffffffffffff1614611fe5576040517f08c379a0000000000000000000000000000000000000000000000000000000008152600401611fdc906145ed565b60405180910390fd5b600073ffffffffffffffffffffffffffffffffffffffff168273ffffffffffffffffffffffffffffffffffffffff161415612055576040517f08c379a000000000000000000000000000000000000000000000000000000000815260040161204c9061467f565b60405180910390fd5b612060838383612bbe565b61206b600082611dd8565b6001600360008573ffffffffffffffffffffffffffffffffffffffff1673ffffffffffffffffffffffffffffffffffffffff16815260200190815260200160002060008282546120bb919061469f565b925050819055506001600360008473ffffffffffffffffffffffffffffffffffffffff1673ffffffffffffffffffffffffffffffffffffffff168152602001908152602001600020600082825461211291906146d3565b92505081905550816002600083815260200190815260200160002060006101000a81548173ffffffffffffffffffffffffffffffffffffffff021916908373ffffffffffffffffffffffffffffffffffffffff160217905550808273ffffffffffffffffffffffffffffffffffffffff168473ffffffffffffffffffffffffffffffffffffffff167fddf252ad1be2c89b69c2b068fc378daa952ba7f163c4a11628f55a4df523b3ef60405160405180910390a46121d1838383612bc3565b505050565b600081600001549050919050565b60008060008084519050600092505b8082101561238e5760008583815181106122105761220f61440b565b5b602001015160f81c60f81b9050608060f81b817effffffffffffffffffffffffffffffffffffffffffffffffffffffffffffff1916101561225f5760018361225891906146d3565b925061237a565b60e060f81b817effffffffffffffffffffffffffffffffffffffffffffffffffffffffffffff191610156122a15760028361229a91906146d3565b9250612379565b60f060f81b817effffffffffffffffffffffffffffffffffffffffffffffffffffffffffffff191610156122e3576003836122dc91906146d3565b9250612378565b60f8801b817effffffffffffffffffffffffffffffffffffffffffffffffffffffffffffff191610156123245760048361231d91906146d3565b9250612377565b60fc60f81b817effffffffffffffffffffffffffffffffffffffffffffffffffffffffffffff191610156123665760058361235f91906146d3565b9250612376565b60068361237391906146d3565b92505b5b5b5b5b50828061238690614469565b9350506121f3565b829350505050919050565b606060008214156123e1576040518060400160405280600181526020017f300000000000000000000000000000000000000000000000000000000000000081525090506124f5565b600082905060005b600082146124135780806123fc90614469565b915050600a8261240c9190614758565b91506123e9565b60008167ffffffffffffffff81111561242f5761242e613490565b5b6040519080825280601f01601f1916602001820160405280156124615781602001600182028036833780820191505090505b5090505b600085146124ee5760018261247a919061469f565b9150600a856124899190614789565b603061249591906146d3565b60f81b8183815181106124ab576124aa61440b565b5b60200101907effffffffffffffffffffffffffffffffffffffffffffffffffffffffffffff1916908160001a905350600a856124e79190614758565b9450612465565b8093505050505b919050565b612594838383604051602401612512939291906147ba565b6040516020818303038152906040527ff362ca59000000000000000000000000000000000000000000000000000000007bffffffffffffffffffffffffffffffffffffffffffffffffffffffff19166020820180517bffffffffffffffffffffffffffffffffffffffffffffffffffffffff8381831617835250505050612b95565b505050565b606060008251905060008114156125c2576040518060200160405280600081525091505061272c565b600060036002836125d391906146d3565b6125dd9190614758565b60046125e991906147ff565b905060006020826125fa91906146d3565b67ffffffffffffffff81111561261357612612613490565b5b6040519080825280601f01601f1916602001820160405280156126455781602001600182028036833780820191505090505b5090506000604051806060016040528060408152602001614d07604091399050600181016020830160005b868110156126e95760038101905062ffffff818a015116603f8160121c168401518060081b905060ff603f83600c1c1686015116810190508060081b905060ff603f8360061c1686015116810190508060081b905060ff603f831686015116810190508060e01b90508084526004840193505050612670565b50600386066001811461270357600281146127135761271e565b613d3d60f01b600283035261271e565b603d60f81b60018303525b508484525050819450505050505b919050565b6127c7816040516024016127459190613239565b6040516020818303038152906040527f41304fac000000000000000000000000000000000000000000000000000000007bffffffffffffffffffffffffffffffffffffffffffffffffffffffff19166020820180517bffffffffffffffffffffffffffffffffffffffffffffffffffffffff8381831617835250505050612b95565b50565b6127e4828260405180602001604052806000815250612bc8565b5050565b6127f182611d64565b612830576040517f08c379a0000000000000000000000000000000000000000000000000000000008152600401612827906148cb565b60405180910390fd5b8060066000848152602001908152602001600020908051906020019061285792919061302e565b505050565b6128f482826040516024016128729291906148eb565b6040516020818303038152906040527f319af333000000000000000000000000000000000000000000000000000000007bffffffffffffffffffffffffffffffffffffffffffffffffffffffff19166020820180517bffffffffffffffffffffffffffffffffffffffffffffffffffffffff8381831617835250505050612b95565b5050565b6001816000016000828254019250508190555050565b8173ffffffffffffffffffffffffffffffffffffffff168373ffffffffffffffffffffffffffffffffffffffff16141561297d576040517f08c379a000000000000000000000000000000000000000000000000000000000815260040161297490614967565b60405180910390fd5b80600560008573ffffffffffffffffffffffffffffffffffffffff1673ffffffffffffffffffffffffffffffffffffffff16815260200190815260200160002060008473ffffffffffffffffffffffffffffffffffffffff1673ffffffffffffffffffffffffffffffffffffffff16815260200190815260200160002060006101000a81548160ff0219169083151502179055508173ffffffffffffffffffffffffffffffffffffffff168373ffffffffffffffffffffffffffffffffffffffff167f17307eab39ab6107e8899845ad3d59bd9653f200f220920489ca2b5937696c3183604051612a6e9190613185565b60405180910390a3505050565b612a86848484611f6f565b612a9284848484612c23565b612ad1576040517f08c379a0000000000000000000000000000000000000000000000000000000008152600401612ac8906149f9565b60405180910390fd5b50505050565b606060405180602001604052806000815250905090565b6060612af982611d64565b612b38576040517f08c379a0000000000000000000000000000000000000000000000000000000008152600401612b2f90614a8b565b60405180910390fd5b6000612b42612ad7565b90506000815111612b625760405180602001604052806000815250612b8d565b80612b6c84612399565b604051602001612b7d9291906143e7565b6040516020818303038152906040525b915050919050565b60008151905060006a636f6e736f6c652e6c6f679050602083016000808483855afa5050505050565b505050565b505050565b612bd28383612dab565b612bdf6000848484612c23565b612c1e576040517f08c379a0000000000000000000000000000000000000000000000000000000008152600401612c15906149f9565b60405180910390fd5b505050565b6000612c448473ffffffffffffffffffffffffffffffffffffffff16612f85565b15612d9e578373ffffffffffffffffffffffffffffffffffffffff1663150b7a02612c6d611dd0565b8786866040518563ffffffff1660e01b8152600401612c8f9493929190614b00565b6020604051808303816000875af1925050508015612ccb57506040513d601f19601f82011682018060405250810190612cc89190614b61565b60015b612d4e573d8060008114612cfb576040519150601f19603f3d011682016040523d82523d6000602084013e612d00565b606091505b50600081511415612d46576040517f08c379a0000000000000000000000000000000000000000000000000000000008152600401612d3d906149f9565b60405180910390fd5b805181602001fd5b63150b7a0260e01b7bffffffffffffffffffffffffffffffffffffffffffffffffffffffff1916817bffffffffffffffffffffffffffffffffffffffffffffffffffffffff191614915050612da3565b600190505b949350505050565b600073ffffffffffffffffffffffffffffffffffffffff168273ffffffffffffffffffffffffffffffffffffffff161415612e1b576040517f08c379a0000000000000000000000000000000000000000000000000000000008152600401612e1290614bda565b60405180910390fd5b612e2481611d64565b15612e64576040517f08c379a0000000000000000000000000000000000000000000000000000000008152600401612e5b90614c46565b60405180910390fd5b612e7060008383612bbe565b6001600360008473ffffffffffffffffffffffffffffffffffffffff1673ffffffffffffffffffffffffffffffffffffffff1681526020019081526020016000206000828254612ec091906146d3565b92505081905550816002600083815260200190815260200160002060006101000a81548173ffffffffffffffffffffffffffffffffffffffff021916908373ffffffffffffffffffffffffffffffffffffffff160217905550808273ffffffffffffffffffffffffffffffffffffffff16600073ffffffffffffffffffffffffffffffffffffffff167fddf252ad1be2c89b69c2b068fc378daa952ba7f163c4a11628f55a4df523b3ef60405160405180910390a4612f8160008383612bc3565b5050565b6000808273ffffffffffffffffffffffffffffffffffffffff163b119050919050565b828054612fb490613a45565b90600052602060002090601f016020900481019282612fd6576000855561301d565b82601f10612fef57803560ff191683800117855561301d565b8280016001018555821561301d579182015b8281111561301c578235825591602001919060010190613001565b5b50905061302a91906130b4565b5090565b82805461303a90613a45565b90600052602060002090601f01602090048101928261305c57600085556130a3565b82601f1061307557805160ff19168380011785556130a3565b828001600101855582156130a3579182015b828111156130a2578251825591602001919060010190613087565b5b5090506130b091906130b4565b5090565b5b808211156130cd5760008160009055506001016130b5565b5090565b6000604051905090565b600080fd5b600080fd5b60007fffffffff0000000000000000000000000000000000000000000000000000000082169050919050565b61311a816130e5565b811461312557600080fd5b50565b60008135905061313781613111565b92915050565b600060208284031215613153576131526130db565b5b600061316184828501613128565b91505092915050565b60008115159050919050565b61317f8161316a565b82525050565b600060208201905061319a6000830184613176565b92915050565b600081519050919050565b600082825260208201905092915050565b60005b838110156131da5780820151818401526020810190506131bf565b838111156131e9576000848401525b50505050565b6000601f19601f8301169050919050565b600061320b826131a0565b61321581856131ab565b93506132258185602086016131bc565b61322e816131ef565b840191505092915050565b600060208201905081810360008301526132538184613200565b905092915050565b6000819050919050565b61326e8161325b565b811461327957600080fd5b50565b60008135905061328b81613265565b92915050565b6000602082840312156132a7576132a66130db565b5b60006132b58482850161327c565b91505092915050565b600073ffffffffffffffffffffffffffffffffffffffff82169050919050565b60006132e9826132be565b9050919050565b6132f9816132de565b82525050565b600060208201905061331460008301846132f0565b92915050565b613323816132de565b811461332e57600080fd5b50565b6000813590506133408161331a565b92915050565b6000806040838503121561335d5761335c6130db565b5b600061336b85828601613331565b925050602061337c8582860161327c565b9150509250929050565b600080fd5b600080fd5b600080fd5b60008083601f8401126133ab576133aa613386565b5b8235905067ffffffffffffffff8111156133c8576133c761338b565b5b6020830191508360018202830111156133e4576133e3613390565b5b9250929050565b60008060208385031215613402576134016130db565b5b600083013567ffffffffffffffff8111156134205761341f6130e0565b5b61342c85828601613395565b92509250509250929050565b600080600060608486031215613451576134506130db565b5b600061345f86828701613331565b935050602061347086828701613331565b92505060406134818682870161327c565b9150509250925092565b600080fd5b7f4e487b7100000000000000000000000000000000000000000000000000000000600052604160045260246000fd5b6134c8826131ef565b810181811067ffffffffffffffff821117156134e7576134e6613490565b5b80604052505050565b60006134fa6130d1565b905061350682826134bf565b919050565b600067ffffffffffffffff82111561352657613525613490565b5b61352f826131ef565b9050602081019050919050565b82818337600083830152505050565b600061355e6135598461350b565b6134f0565b90508281526020810184848401111561357a5761357961348b565b5b61358584828561353c565b509392505050565b600082601f8301126135a2576135a1613386565b5b81356135b284826020860161354b565b91505092915050565b6000602082840312156135d1576135d06130db565b5b600082013567ffffffffffffffff8111156135ef576135ee6130e0565b5b6135fb8482850161358d565b91505092915050565b60006020828403121561361a576136196130db565b5b600061362884828501613331565b91505092915050565b61363a8161325b565b82525050565b60006020820190506136556000830184613631565b92915050565b6000613666826132be565b9050919050565b6136768161365b565b82525050565b6000602082019050613691600083018461366d565b92915050565b6136a08161316a565b81146136ab57600080fd5b50565b6000813590506136bd81613697565b92915050565b600080604083850312156136da576136d96130db565b5b60006136e885828601613331565b92505060206136f9858286016136ae565b9150509250929050565b600067ffffffffffffffff82111561371e5761371d613490565b5b613727826131ef565b9050602081019050919050565b600061374761374284613703565b6134f0565b9050828152602081018484840111156137635761376261348b565b5b61376e84828561353c565b509392505050565b600082601f83011261378b5761378a613386565b5b813561379b848260208601613734565b91505092915050565b600080600080608085870312156137be576137bd6130db565b5b60006137cc87828801613331565b94505060206137dd87828801613331565b93505060406137ee8782880161327c565b925050606085013567ffffffffffffffff81111561380f5761380e6130e0565b5b61381b87828801613776565b91505092959194509250565b60008060008060408587031215613841576138406130db565b5b600085013567ffffffffffffffff81111561385f5761385e6130e0565b5b61386b87828801613395565b9450945050602085013567ffffffffffffffff81111561388e5761388d6130e0565b5b61389a87828801613395565b925092505092959194509250565b600080604083850312156138bf576138be6130db565b5b60006138cd85828601613331565b92505060206138de85828601613331565b9150509250929050565b600081519050919050565b600082825260208201905092915050565b6000819050602082019050919050565b600082825260208201905092915050565b6000613930826131a0565b61393a8185613914565b935061394a8185602086016131bc565b613953816131ef565b840191505092915050565b600061396a8383613925565b905092915050565b6000602082019050919050565b600061398a826138e8565b61399481856138f3565b9350836020820285016139a685613904565b8060005b858110156139e257848403895281516139c3858261395e565b94506139ce83613972565b925060208a019950506001810190506139aa565b50829750879550505050505092915050565b60006020820190508181036000830152613a0e818461397f565b905092915050565b7f4e487b7100000000000000000000000000000000000000000000000000000000600052602260045260246000fd5b60006002820490506001821680613a5d57607f821691505b60208210811415613a7157613a70613a16565b5b50919050565b7f4552433732313a20617070726f76656420717565727920666f72206e6f6e657860008201527f697374656e7420746f6b656e0000000000000000000000000000000000000000602082015250565b6000613ad3602c836131ab565b9150613ade82613a77565b604082019050919050565b60006020820190508181036000830152613b0281613ac6565b9050919050565b7f4552433732313a20617070726f76616c20746f2063757272656e74206f776e6560008201527f7200000000000000000000000000000000000000000000000000000000000000602082015250565b6000613b656021836131ab565b9150613b7082613b09565b604082019050919050565b60006020820190508181036000830152613b9481613b58565b9050919050565b7f4552433732313a20617070726f76652063616c6c6572206973206e6f74206f7760008201527f6e6572206e6f7220617070726f76656420666f7220616c6c0000000000000000602082015250565b6000613bf76038836131ab565b9150613c0282613b9b565b604082019050919050565b60006020820190508181036000830152613c2681613bea565b9050919050565b600081905092915050565b6000613c448385613c2d565b9350613c5183858461353c565b82840190509392505050565b6000613c6a828486613c38565b91508190509392505050565b7f4552433732313a207472616e736665722063616c6c6572206973206e6f74206f60008201527f776e6572206e6f7220617070726f766564000000000000000000000000000000602082015250565b6000613cd26031836131ab565b9150613cdd82613c76565b604082019050919050565b60006020820190508181036000830152613d0181613cc5565b9050919050565b600081905092915050565b50565b6000613d23600083613d08565b9150613d2e82613d13565b600082019050919050565b6000613d4482613d16565b9150819050919050565b7f6661696c656420746f207769746864726177204d415449430000000000000000600082015250565b6000613d846018836131ab565b9150613d8f82613d4e565b602082019050919050565b60006020820190508181036000830152613db381613d77565b9050919050565b6000613dc683856131ab565b9350613dd383858461353c565b613ddc836131ef565b840190509392505050565b60006020820190508181036000830152613e02818486613dba565b90509392505050565b7f6e6f7420656e6f756768206d6174696320706169640000000000000000000000600082015250565b6000613e416015836131ab565b9150613e4c82613e0b565b602082019050919050565b60006020820190508181036000830152613e7081613e34565b9050919050565b7f2e00000000000000000000000000000000000000000000000000000000000000600082015250565b6000613ead600183613c2d565b9150613eb882613e77565b600182019050919050565b60008190508160005260206000209050919050565b60008154613ee581613a45565b613eef8186613c2d565b94506001821660008114613f0a5760018114613f1b57613f4e565b60ff19831686528186019350613f4e565b613f2485613ec3565b60005b83811015613f4657815481890152600182019150602081019050613f27565b838801955050505b50505092915050565b6000613f64828587613c38565b9150613f6f82613ea0565b9150613f7b8284613ed8565b9150819050949350505050565b6000613f93826131a0565b613f9d8185613c2d565b9350613fad8185602086016131bc565b80840191505092915050565b6000613fc58286613ed8565b9150613fd18285613f88565b9150613fdd8284613ed8565b9150819050949350505050565b7f7b226e616d65223a220000000000000000000000000000000000000000000000600082015250565b6000614020600983613c2d565b915061402b82613fea565b600982019050919050565b7f222c226465736372697074696f6e223a224120646f6d61696e206f6e2074686560008201527f204e696e6a61206e616d652073657276696365222c22696d616765223a22646160208201527f74613a696d6167652f7376672b786d6c3b6261736536342c0000000000000000604082015250565b60006140b8605883613c2d565b91506140c382614036565b605882019050919050565b7f222c226c656e677468223a220000000000000000000000000000000000000000600082015250565b6000614104600c83613c2d565b915061410f826140ce565b600c82019050919050565b7f227d000000000000000000000000000000000000000000000000000000000000600082015250565b6000614150600283613c2d565b915061415b8261411a565b600282019050919050565b600061417182614013565b915061417d8286613f88565b9150614188826140ab565b91506141948285613f88565b915061419f826140f7565b91506141ab8284613f88565b91506141b682614143565b9150819050949350505050565b7f646174613a6170706c69636174696f6e2f6a736f6e3b6261736536342c000000600082015250565b60006141f9601d83613c2d565b9150614204826141c3565b601d82019050919050565b600061421a826141ec565b91506142268284613f88565b915081905092915050565b7f4552433732313a206f776e657220717565727920666f72206e6f6e657869737460008201527f656e7420746f6b656e0000000000000000000000000000000000000000000000602082015250565b600061428d6029836131ab565b915061429882614231565b604082019050919050565b600060208201905081810360008301526142bc81614280565b9050919050565b7f4552433732313a2062616c616e636520717565727920666f7220746865207a6560008201527f726f206164647265737300000000000000000000000000000000000000000000602082015250565b600061431f602a836131ab565b915061432a826142c3565b604082019050919050565b6000602082019050818103600083015261434e81614312565b9050919050565b7f45524337323155524953746f726167653a2055524920717565727920666f722060008201527f6e6f6e6578697374656e7420746f6b656e000000000000000000000000000000602082015250565b60006143b16031836131ab565b91506143bc82614355565b604082019050919050565b600060208201905081810360008301526143e0816143a4565b9050919050565b60006143f38285613f88565b91506143ff8284613f88565b91508190509392505050565b7f4e487b7100000000000000000000000000000000000000000000000000000000600052603260045260246000fd5b7f4e487b7100000000000000000000000000000000000000000000000000000000600052601160045260246000fd5b60006144748261325b565b91507fffffffffffffffffffffffffffffffffffffffffffffffffffffffffffffffff8214156144a7576144a661443a565b5b600182019050919050565b600060408201905081810360008301526144cc8185613200565b905081810360208301526144e08184613200565b90509392505050565b7f4552433732313a206f70657261746f7220717565727920666f72206e6f6e657860008201527f697374656e7420746f6b656e0000000000000000000000000000000000000000602082015250565b6000614545602c836131ab565b9150614550826144e9565b604082019050919050565b6000602082019050818103600083015261457481614538565b9050919050565b7f4552433732313a207472616e736665722066726f6d20696e636f72726563742060008201527f6f776e6572000000000000000000000000000000000000000000000000000000602082015250565b60006145d76025836131ab565b91506145e28261457b565b604082019050919050565b60006020820190508181036000830152614606816145ca565b9050919050565b7f4552433732313a207472616e7366657220746f20746865207a65726f2061646460008201527f7265737300000000000000000000000000000000000000000000000000000000602082015250565b60006146696024836131ab565b91506146748261460d565b604082019050919050565b600060208201905081810360008301526146988161465c565b9050919050565b60006146aa8261325b565b91506146b58361325b565b9250828210156146c8576146c761443a565b5b828203905092915050565b60006146de8261325b565b91506146e98361325b565b9250827fffffffffffffffffffffffffffffffffffffffffffffffffffffffffffffffff0382111561471e5761471d61443a565b5b828201905092915050565b7f4e487b7100000000000000000000000000000000000000000000000000000000600052601260045260246000fd5b60006147638261325b565b915061476e8361325b565b92508261477e5761477d614729565b5b828204905092915050565b60006147948261325b565b915061479f8361325b565b9250826147af576147ae614729565b5b828206905092915050565b600060608201905081810360008301526147d48186613200565b905081810360208301526147e88185613200565b90506147f76040830184613631565b949350505050565b600061480a8261325b565b91506148158361325b565b9250817fffffffffffffffffffffffffffffffffffffffffffffffffffffffffffffffff048311821515161561484e5761484d61443a565b5b828202905092915050565b7f45524337323155524953746f726167653a2055524920736574206f66206e6f6e60008201527f6578697374656e7420746f6b656e000000000000000000000000000000000000602082015250565b60006148b5602e836131ab565b91506148c082614859565b604082019050919050565b600060208201905081810360008301526148e4816148a8565b9050919050565b600060408201905081810360008301526149058185613200565b905061491460208301846132f0565b9392505050565b7f4552433732313a20617070726f766520746f2063616c6c657200000000000000600082015250565b60006149516019836131ab565b915061495c8261491b565b602082019050919050565b6000602082019050818103600083015261498081614944565b9050919050565b7f4552433732313a207472616e7366657220746f206e6f6e20455243373231526560008201527f63656976657220696d706c656d656e7465720000000000000000000000000000602082015250565b60006149e36032836131ab565b91506149ee82614987565b604082019050919050565b60006020820190508181036000830152614a12816149d6565b9050919050565b7f4552433732314d657461646174613a2055524920717565727920666f72206e6f60008201527f6e6578697374656e7420746f6b656e0000000000000000000000000000000000602082015250565b6000614a75602f836131ab565b9150614a8082614a19565b604082019050919050565b60006020820190508181036000830152614aa481614a68565b9050919050565b600081519050919050565b600082825260208201905092915050565b6000614ad282614aab565b614adc8185614ab6565b9350614aec8185602086016131bc565b614af5816131ef565b840191505092915050565b6000608082019050614b1560008301876132f0565b614b2260208301866132f0565b614b2f6040830185613631565b8181036060830152614b418184614ac7565b905095945050505050565b600081519050614b5b81613111565b92915050565b600060208284031215614b7757614b766130db565b5b6000614b8584828501614b4c565b91505092915050565b7f4552433732313a206d696e7420746f20746865207a65726f2061646472657373600082015250565b6000614bc46020836131ab565b9150614bcf82614b8e565b602082019050919050565b60006020820190508181036000830152614bf381614bb7565b9050919050565b7f4552433732313a20746f6b656e20616c7265616479206d696e74656400000000600082015250565b6000614c30601c836131ab565b9150614c3b82614bfa565b602082019050919050565b60006020820190508181036000830152614c5f81614c23565b905091905056fe5265676973746572696e67202573206f6e2074686520636f6e7472616374207769746820746f6b656e49642025640a2d2d2d2d2d2d2d2d2d2d2d2d2d2d2d2d2d2d2d2d2d2d2d2d2d2d2d2d2d2d2d2d2d2d2d2d2d2d2d2d2d2d2d2d2d2d2d2d2d2d2d2d2d2d2d2d2d2d2d2d2d2d2d2d2d2d2d2d2d2d2d2d2d2d2d2d2d2d2d2d2d2d2d2d2d2d2d2d2d2d2d2d2d2d2d2d2d2d2d2d2d2d2d2d2d2d2d2d2d2d2d2d0a4142434445464748494a4b4c4d4e4f505152535455565758595a6162636465666768696a6b6c6d6e6f707172737475767778797a303132333435363738392b2fa264697066735822122010cf95c88706c541b41fb05f16d4b58471de5409e12617806e945ac4d7cdbb7564736f6c634300080a00333c73766720786d6c6e733d22687474703a2f2f7777772e77332e6f72672f323030302f737667222077696474683d2232373022206865696768743d22323730222066696c6c3d226e6f6e65223e3c706174682066696c6c3d2275726c282342292220643d224d302030683237307632373048307a222f3e3c646566733e3c66696c7465722069643d22412220636f6c6f722d696e746572706f6c6174696f6e2d66696c746572733d2273524742222066696c746572556e6974733d227573657253706163654f6e55736522206865696768743d22323730222077696474683d22323730223e3c666544726f70536861646f772064783d2230222064793d22312220737464446576696174696f6e3d22322220666c6f6f642d6f7061636974793d222e323235222077696474683d223230302522206865696768743d2232303025222f3e3c2f66696c7465723e3c2f646566733e3c7061746820643d224d37322e3836332034322e393439632d2e3636382d2e3338372d312e3432362d2e35392d322e3139372d2e3539732d312e3532392e3230342d322e3139372e35396c2d31302e30383120362e3033322d362e383520332e3933342d31302e30383120362e303332632d2e3636382e3338372d312e3432362e35392d322e3139372e3539732d312e3532392d2e3230342d322e3139372d2e35396c2d382e3031332d342e37323161342e353220342e35322030203020312d312e3538392d312e363136632d2e3338342d2e3636352d2e3539342d312e3431382d2e3630382d322e313837762d392e3331632d2e3031332d2e3737352e3138352d312e3533382e3537322d322e32303861342e323520342e323520302030203120312e3632352d312e3539356c372e3838342d342e3539632e3636382d2e33383720312e3432362d2e353920322e3139372d2e353973312e3532392e32303420322e3139372e35396c372e38383420342e353961342e353220342e353220302030203120312e35383920312e363136632e3338342e3636352e35393420312e3431382e36303820322e31383776362e3033326c362e38352d342e303635762d362e303332632e3031332d2e3737352d2e3138352d312e3533382d2e3537322d322e32303861342e323520342e32352030203020302d312e3632352d312e3539354c34312e3435362032342e3539632d2e3636382d2e3338372d312e3432362d2e35392d322e3139372d2e3539732d312e3532392e3230342d322e3139372e35396c2d31342e38363420382e36353561342e323520342e32352030203020302d312e36323520312e353935632d2e3338372e36372d2e35383520312e3433342d2e35373220322e3230387631372e343431632d2e3031332e3737352e31383520312e3533382e35373220322e32303861342e323520342e323520302030203020312e36323520312e3539356c31342e38363420382e363535632e3636382e33383720312e3432362e353920322e3139372e353973312e3532392d2e32303420322e3139372d2e35396c31302e3038312d352e39303120362e38352d342e3036352031302e3038312d352e393031632e3636382d2e33383720312e3432362d2e353920322e3139372d2e353973312e3532392e32303420322e3139372e35396c372e38383420342e353961342e353220342e353220302030203120312e35383920312e363136632e3338342e3636352e35393420312e3431382e36303820322e31383776392e333131632e3031332e3737352d2e31383520312e3533382d2e35373220322e32303861342e323520342e32352030203020312d312e36323520312e3539356c2d372e38383420342e373231632d2e3636382e3338372d312e3432362e35392d322e3139372e3539732d312e3532392d2e3230342d322e3139372d2e35396c2d372e3838342d342e353961342e353220342e35322030203020312d312e3538392d312e363136632d2e3338352d2e3636352d2e3539342d312e3431382d2e3630382d322e313837762d362e3033326c2d362e383520342e30363576362e303332632d2e3031332e3737352e31383520312e3533382e35373220322e32303861342e323520342e323520302030203020312e36323520312e3539356c31342e38363420382e363535632e3636382e33383720312e3432362e353920322e3139372e353973312e3532392d2e32303420322e3139372d2e35396c31342e3836342d382e363535632e3635372d2e33393420312e3230342d2e393520312e3538392d312e363136732e3539342d312e3431382e3630392d322e3138375635352e353338632e3031332d2e3737352d2e3138352d312e3533382d2e3537322d322e32303861342e323520342e32352030203020302d312e3632352d312e3539356c2d31342e3939332d382e3738367a222066696c6c3d2223666666222f3e3c646566733e3c6c696e6561724772616469656e742069643d2242222078313d2230222079313d2230222078323d22323730222079323d2232373022206772616469656e74556e6974733d227573657253706163654f6e557365223e3c73746f702073746f702d636f6c6f723d2223636235656565222f3e3c73746f70206f66667365743d2231222073746f702d636f6c6f723d2223306364376534222073746f702d6f7061636974793d222e3939222f3e3c2f6c696e6561724772616469656e743e3c2f646566733e3c7465787420783d2233322e352220793d223233312220666f6e742d73697a653d223237222066696c6c3d2223666666222066696c7465723d2275726c282341292220666f6e742d66616d696c793d22506c7573204a616b617274612053616e732c44656a6156752053616e732c4e6f746f20436f6c6f7220456d6f6a692c4170706c6520436f6c6f7220456d6f6a692c73616e732d73657269662220666f6e742d7765696768743d22626f6c64223e",
  "linkReferences": {},
  "deployedLinkReferences": {}
}